{
  "contractName": "Vote",
  "abi": [
    {
      "constant": true,
      "inputs": [],
      "name": "owner",
      "outputs": [
        {
          "name": "",
          "type": "address"
        }
      ],
      "payable": false,
      "stateMutability": "view",
      "type": "function"
    },
    {
      "constant": true,
      "inputs": [],
      "name": "starsCount",
      "outputs": [
        {
          "name": "",
          "type": "uint256"
        }
      ],
      "payable": false,
      "stateMutability": "view",
      "type": "function"
    },
    {
      "constant": true,
      "inputs": [
        {
          "name": "",
          "type": "address"
        }
      ],
      "name": "voters",
      "outputs": [
        {
          "name": "",
          "type": "bool"
        }
      ],
      "payable": false,
      "stateMutability": "view",
      "type": "function"
    },
    {
      "constant": true,
      "inputs": [
        {
          "name": "",
          "type": "uint256"
        }
      ],
      "name": "voteMapping",
      "outputs": [
        {
          "name": "id",
          "type": "uint256"
        },
        {
          "name": "name",
          "type": "string"
        },
        {
          "name": "country",
          "type": "string"
        },
        {
          "name": "voteCount",
          "type": "uint256"
        }
      ],
      "payable": false,
      "stateMutability": "view",
      "type": "function"
    },
    {
      "inputs": [],
      "payable": false,
      "stateMutability": "nonpayable",
      "type": "constructor"
    },
    {
      "anonymous": false,
      "inputs": [
        {
          "indexed": false,
          "name": "_candidateId",
          "type": "uint256"
        }
      ],
      "name": "votedEvent",
      "type": "event"
    },
    {
      "constant": false,
      "inputs": [
        {
          "name": "_starID",
          "type": "uint256"
        }
      ],
      "name": "vote",
      "outputs": [],
      "payable": true,
      "stateMutability": "payable",
      "type": "function"
    }
  ],
  "bytecode": "0x608060405234801561001057600080fd5b50336000806101000a81548173ffffffffffffffffffffffffffffffffffffffff021916908373ffffffffffffffffffffffffffffffffffffffff16021790555061006861006d640100000000026401000000009004565b610444565b6100f06040805190810160405280600e81526020017f432de7bd97e7bab3e5b094e5a49a0000000000000000000000000000000000008152506040805190810160405280600981526020017fe891a1e89084e7899900000000000000000000000000000000000000000000008152506102fe640100000000026401000000009004565b6101736040805190810160405280600981526020017fe58da2e58da1e5ba9300000000000000000000000000000000000000000000008152506040805190810160405280600981526020017fe6af94e588a9e697b600000000000000000000000000000000000000000000008152506102fe640100000000026401000000009004565b6101f66040805190810160405280600c81526020017fe58887e9878ce8888de5a4ab00000000000000000000000000000000000000008152506040805190810160405280600981526020017fe4bf84e7bd97e696af00000000000000000000000000000000000000000000008152506102fe640100000000026401000000009004565b6102796040805190810160405280601081526020017fe8bfade688882de7a791e696afe5a194000000000000000000000000000000008152506040805190810160405280600981526020017fe8a5bfe78fade7899900000000000000000000000000000000000000000000008152506102fe640100000000026401000000009004565b6102fc6040805190810160405280600681526020017fe587afe681a900000000000000000000000000000000000000000000000000008152506040805190810160405280600981526020017fe88bb1e6a0bce585b000000000000000000000000000000000000000000000008152506102fe640100000000026401000000009004565b565b6001600081548092919060010191905055506080604051908101604052806001548152602001838152602001828152602001600081525060036000600154815260200190815260200160002060008201518160000155602082015181600101908051906020019061037092919061039f565b50604082015181600201908051906020019061038d92919061039f565b50606082015181600301559050505050565b828054600181600116156101000203166002900490600052602060002090601f016020900481019282601f106103e057805160ff191683800117855561040e565b8280016001018555821561040e579182015b8281111561040d5782518255916020019190600101906103f2565b5b50905061041b919061041f565b5090565b61044191905b8082111561043d576000816000905550600101610425565b5090565b90565b610594806104536000396000f30060806040526004361061006d576000357c0100000000000000000000000000000000000000000000000000000000900463ffffffff1680630121b93f146100725780638da5cb5b146100925780639f122179146100e9578063a3ec138d14610114578063eb9749db1461016f575b600080fd5b6100906004803603810190808035906020019092919050505061028f565b005b34801561009e57600080fd5b506100a76103bd565b604051808273ffffffffffffffffffffffffffffffffffffffff1673ffffffffffffffffffffffffffffffffffffffff16815260200191505060405180910390f35b3480156100f557600080fd5b506100fe6103e2565b6040518082815260200191505060405180910390f35b34801561012057600080fd5b50610155600480360381019080803573ffffffffffffffffffffffffffffffffffffffff1690602001909291905050506103e8565b604051808215151515815260200191505060405180910390f35b34801561017b57600080fd5b5061019a60048036038101908080359060200190929190505050610408565b604051808581526020018060200180602001848152602001838103835286818151815260200191508051906020019080838360005b838110156101ea5780820151818401526020810190506101cf565b50505050905090810190601f1680156102175780820380516001836020036101000a031916815260200191505b50838103825285818151815260200191508051906020019080838360005b83811015610250578082015181840152602081019050610235565b50505050905090810190601f16801561027d5780820380516001836020036101000a031916815260200191505b50965050505050505060405180910390f35b600260003373ffffffffffffffffffffffffffffffffffffffff1673ffffffffffffffffffffffffffffffffffffffff16815260200190815260200160002060009054906101000a900460ff161515156102e857600080fd5b6000811180156102fa57506001548111155b151561030557600080fd5b6001600260003373ffffffffffffffffffffffffffffffffffffffff1673ffffffffffffffffffffffffffffffffffffffff16815260200190815260200160002060006101000a81548160ff02191690831515021790555060036000828152602001908152602001600020600301600081548092919060010191905055507ffff3c900d938d21d0990d786e819f29b8d05c1ef587b462b939609625b684b16816040518082815260200191505060405180910390a150565b6000809054906101000a900473ffffffffffffffffffffffffffffffffffffffff1681565b60015481565b60026020528060005260406000206000915054906101000a900460ff1681565b6003602052806000526040600020600091509050806000015490806001018054600181600116156101000203166002900480601f0160208091040260200160405190810160405280929190818152602001828054600181600116156101000203166002900480156104ba5780601f1061048f576101008083540402835291602001916104ba565b820191906000526020600020905b81548152906001019060200180831161049d57829003601f168201915b505050505090806002018054600181600116156101000203166002900480601f0160208091040260200160405190810160405280929190818152602001828054600181600116156101000203166002900480156105585780601f1061052d57610100808354040283529160200191610558565b820191906000526020600020905b81548152906001019060200180831161053b57829003601f168201915b50505050509080600301549050845600a165627a7a72305820a16a7b62c5b766b38d2ebcc028af28accc91ca0b3d5f9b243c6a2e8a1c74a76b0029",
  "source": "pragma solidity ^0.4.17;\n\ncontract Vote {\n  address public owner;\n\n  struct FootballStar {\n        uint id;\n        string name;\n        string country;\n        uint voteCount;\n  }\n\n  uint public starsCount;\n\n  //已投票的地址Mapping\n  mapping(address => bool) public voters;\n\n  //投票存储Mapping\n  mapping (uint => FootballStar) public voteMapping;\n\n  event votedEvent (\n    uint _candidateId\n  );\n\n  constructor () public {\n    owner = msg.sender;\n    initStars();\n  }\n\n  function initStars ()  private {\n    addStar('C-罗纳尔多', '葡萄牙');\n    addStar('卢卡库', '比利时');\n    addStar('切里舍夫', '俄罗斯');\n    addStar('迭戈-科斯塔', '西班牙');\n    addStar('凯恩', '英格兰');\n  }\n\n  //添加球星到voteMapping\n  function addStar (string _starName, string _country)  private {\n    starsCount++;\n    voteMapping[starsCount] = FootballStar(starsCount, _starName, _country, 0);\n  }\n\n  //投票\n  function vote (uint _starID) public payable {\n\n    require(!voters[msg.sender]);\n    require(_starID > 0 && _starID <= starsCount);\n\n    voters[msg.sender] = true;\n\n    voteMapping[_starID].voteCount ++;\n\n    emit votedEvent(_starID);\n\n\n  }\n\n}\n",
  "sourcePath": "/Users/yancey_chan/Desktop/WorldCupStarVote/contracts/Vote.sol",
  "compiler": {
    "name": "solc",
    "version": "0.4.24+commit.e67f0147.Emscripten.clang"
  },
  "schemaVersion": "2.0.0",
  "updatedAt": "2018-07-07T15:46:20.766Z"
}